{
  "_format": "hh-sol-artifact-1",
  "contractName": "MetaToken",
  "sourceName": "contracts/MetaToken.sol",
  "abi": [
    {
      "inputs": [],
      "stateMutability": "nonpayable",
      "type": "constructor"
    },
    {
      "inputs": [],
      "name": "ApprovalCallerNotOwnerNorApproved",
      "type": "error"
    },
    {
      "inputs": [],
      "name": "ApprovalQueryForNonexistentToken",
      "type": "error"
    },
    {
      "inputs": [],
      "name": "BalanceQueryForZeroAddress",
      "type": "error"
    },
    {
      "inputs": [],
      "name": "MintERC2309QuantityExceedsLimit",
      "type": "error"
    },
    {
      "inputs": [],
      "name": "MintToZeroAddress",
      "type": "error"
    },
    {
      "inputs": [],
      "name": "MintZeroQuantity",
      "type": "error"
    },
    {
      "inputs": [],
      "name": "OwnerQueryForNonexistentToken",
      "type": "error"
    },
    {
      "inputs": [],
      "name": "OwnershipNotInitializedForExtraData",
      "type": "error"
    },
    {
      "inputs": [],
      "name": "TransferCallerNotOwnerNorApproved",
      "type": "error"
    },
    {
      "inputs": [],
      "name": "TransferFromIncorrectOwner",
      "type": "error"
    },
    {
      "inputs": [],
      "name": "TransferToNonERC721ReceiverImplementer",
      "type": "error"
    },
    {
      "inputs": [],
      "name": "TransferToZeroAddress",
      "type": "error"
    },
    {
      "inputs": [],
      "name": "URIQueryForNonexistentToken",
      "type": "error"
    },
    {
      "anonymous": false,
      "inputs": [
        {
          "indexed": true,
          "internalType": "address",
          "name": "owner",
          "type": "address"
        },
        {
          "indexed": true,
          "internalType": "address",
          "name": "approved",
          "type": "address"
        },
        {
          "indexed": true,
          "internalType": "uint256",
          "name": "tokenId",
          "type": "uint256"
        }
      ],
      "name": "Approval",
      "type": "event"
    },
    {
      "anonymous": false,
      "inputs": [
        {
          "indexed": true,
          "internalType": "address",
          "name": "owner",
          "type": "address"
        },
        {
          "indexed": true,
          "internalType": "address",
          "name": "operator",
          "type": "address"
        },
        {
          "indexed": false,
          "internalType": "bool",
          "name": "approved",
          "type": "bool"
        }
      ],
      "name": "ApprovalForAll",
      "type": "event"
    },
    {
      "anonymous": false,
      "inputs": [
        {
          "indexed": true,
          "internalType": "uint256",
          "name": "fromTokenId",
          "type": "uint256"
        },
        {
          "indexed": false,
          "internalType": "uint256",
          "name": "toTokenId",
          "type": "uint256"
        },
        {
          "indexed": true,
          "internalType": "address",
          "name": "from",
          "type": "address"
        },
        {
          "indexed": true,
          "internalType": "address",
          "name": "to",
          "type": "address"
        }
      ],
      "name": "ConsecutiveTransfer",
      "type": "event"
    },
    {
      "anonymous": false,
      "inputs": [
        {
          "indexed": true,
          "internalType": "address",
          "name": "from",
          "type": "address"
        },
        {
          "indexed": true,
          "internalType": "address",
          "name": "to",
          "type": "address"
        },
        {
          "indexed": true,
          "internalType": "uint256",
          "name": "tokenId",
          "type": "uint256"
        }
      ],
      "name": "Transfer",
      "type": "event"
    },
    {
      "inputs": [
        {
          "internalType": "address",
          "name": "to",
          "type": "address"
        },
        {
          "internalType": "uint256",
          "name": "tokenId",
          "type": "uint256"
        }
      ],
      "name": "approve",
      "outputs": [],
      "stateMutability": "payable",
      "type": "function"
    },
    {
      "inputs": [
        {
          "internalType": "address",
          "name": "owner",
          "type": "address"
        }
      ],
      "name": "balanceOf",
      "outputs": [
        {
          "internalType": "uint256",
          "name": "",
          "type": "uint256"
        }
      ],
      "stateMutability": "view",
      "type": "function"
    },
    {
      "inputs": [],
      "name": "baseUrl",
      "outputs": [
        {
          "internalType": "string",
          "name": "",
          "type": "string"
        }
      ],
      "stateMutability": "view",
      "type": "function"
    },
    {
      "inputs": [],
      "name": "description",
      "outputs": [
        {
          "internalType": "string",
          "name": "",
          "type": "string"
        }
      ],
      "stateMutability": "view",
      "type": "function"
    },
    {
      "inputs": [
        {
          "internalType": "uint256",
          "name": "tokenId",
          "type": "uint256"
        }
      ],
      "name": "getApproved",
      "outputs": [
        {
          "internalType": "address",
          "name": "",
          "type": "address"
        }
      ],
      "stateMutability": "view",
      "type": "function"
    },
    {
      "inputs": [
        {
          "internalType": "address",
          "name": "owner",
          "type": "address"
        },
        {
          "internalType": "address",
          "name": "operator",
          "type": "address"
        }
      ],
      "name": "isApprovedForAll",
      "outputs": [
        {
          "internalType": "bool",
          "name": "",
          "type": "bool"
        }
      ],
      "stateMutability": "view",
      "type": "function"
    },
    {
      "inputs": [
        {
          "internalType": "uint256",
          "name": "quantity",
          "type": "uint256"
        }
      ],
      "name": "mint",
      "outputs": [],
      "stateMutability": "payable",
      "type": "function"
    },
    {
      "inputs": [],
      "name": "name",
      "outputs": [
        {
          "internalType": "string",
          "name": "",
          "type": "string"
        }
      ],
      "stateMutability": "view",
      "type": "function"
    },
    {
      "inputs": [],
      "name": "owner",
      "outputs": [
        {
          "internalType": "address",
          "name": "",
          "type": "address"
        }
      ],
      "stateMutability": "view",
      "type": "function"
    },
    {
      "inputs": [
        {
          "internalType": "uint256",
          "name": "tokenId",
          "type": "uint256"
        }
      ],
      "name": "ownerOf",
      "outputs": [
        {
          "internalType": "address",
          "name": "",
          "type": "address"
        }
      ],
      "stateMutability": "view",
      "type": "function"
    },
    {
      "inputs": [],
      "name": "promptDescription",
      "outputs": [
        {
          "internalType": "string",
          "name": "",
          "type": "string"
        }
      ],
      "stateMutability": "view",
      "type": "function"
    },
    {
      "inputs": [
        {
          "internalType": "address",
          "name": "from",
          "type": "address"
        },
        {
          "internalType": "address",
          "name": "to",
          "type": "address"
        },
        {
          "internalType": "uint256",
          "name": "tokenId",
          "type": "uint256"
        }
      ],
      "name": "safeTransferFrom",
      "outputs": [],
      "stateMutability": "payable",
      "type": "function"
    },
    {
      "inputs": [
        {
          "internalType": "address",
          "name": "from",
          "type": "address"
        },
        {
          "internalType": "address",
          "name": "to",
          "type": "address"
        },
        {
          "internalType": "uint256",
          "name": "tokenId",
          "type": "uint256"
        },
        {
          "internalType": "bytes",
          "name": "_data",
          "type": "bytes"
        }
      ],
      "name": "safeTransferFrom",
      "outputs": [],
      "stateMutability": "payable",
      "type": "function"
    },
    {
      "inputs": [
        {
          "internalType": "address",
          "name": "operator",
          "type": "address"
        },
        {
          "internalType": "bool",
          "name": "approved",
          "type": "bool"
        }
      ],
      "name": "setApprovalForAll",
      "outputs": [],
      "stateMutability": "nonpayable",
      "type": "function"
    },
    {
      "inputs": [
        {
          "internalType": "bytes4",
          "name": "interfaceId",
          "type": "bytes4"
        }
      ],
      "name": "supportsInterface",
      "outputs": [
        {
          "internalType": "bool",
          "name": "",
          "type": "bool"
        }
      ],
      "stateMutability": "view",
      "type": "function"
    },
    {
      "inputs": [],
      "name": "symbol",
      "outputs": [
        {
          "internalType": "string",
          "name": "",
          "type": "string"
        }
      ],
      "stateMutability": "view",
      "type": "function"
    },
    {
      "inputs": [
        {
          "internalType": "uint256",
          "name": "tokenId",
          "type": "uint256"
        }
      ],
      "name": "tokenURI",
      "outputs": [
        {
          "internalType": "string",
          "name": "",
          "type": "string"
        }
      ],
      "stateMutability": "view",
      "type": "function"
    },
    {
      "inputs": [],
      "name": "totalSupply",
      "outputs": [
        {
          "internalType": "uint256",
          "name": "",
          "type": "uint256"
        }
      ],
      "stateMutability": "view",
      "type": "function"
    },
    {
      "inputs": [
        {
          "internalType": "address",
          "name": "from",
          "type": "address"
        },
        {
          "internalType": "address",
          "name": "to",
          "type": "address"
        },
        {
          "internalType": "uint256",
          "name": "tokenId",
          "type": "uint256"
        }
      ],
      "name": "transferFrom",
      "outputs": [],
      "stateMutability": "payable",
      "type": "function"
    }
  ],
  "bytecode": "0x60806040526040518060e0016040528060bb81526020016200253160bb9139600990816200002e9190620003d6565b506040518060600160405280603b8152602001620024f6603b9139600a9081620000599190620003d6565b503480156200006757600080fd5b506040518060400160405280600981526020017f4d657461546f6b656e00000000000000000000000000000000000000000000008152506040518060400160405280600381526020017f4d544100000000000000000000000000000000000000000000000000000000008152508160029081620000e59190620003d6565b508060039081620000f79190620003d6565b50620001086200015760201b60201c565b600081905550505033600860006101000a81548173ffffffffffffffffffffffffffffffffffffffff021916908373ffffffffffffffffffffffffffffffffffffffff160217905550620004bd565b600090565b600081519050919050565b7f4e487b7100000000000000000000000000000000000000000000000000000000600052604160045260246000fd5b7f4e487b7100000000000000000000000000000000000000000000000000000000600052602260045260246000fd5b60006002820490506001821680620001de57607f821691505b602082108103620001f457620001f362000196565b5b50919050565b60008190508160005260206000209050919050565b60006020601f8301049050919050565b600082821b905092915050565b6000600883026200025e7fffffffffffffffffffffffffffffffffffffffffffffffffffffffffffffffff826200021f565b6200026a86836200021f565b95508019841693508086168417925050509392505050565b6000819050919050565b6000819050919050565b6000620002b7620002b1620002ab8462000282565b6200028c565b62000282565b9050919050565b6000819050919050565b620002d38362000296565b620002eb620002e282620002be565b8484546200022c565b825550505050565b600090565b62000302620002f3565b6200030f818484620002c8565b505050565b5b8181101562000337576200032b600082620002f8565b60018101905062000315565b5050565b601f82111562000386576200035081620001fa565b6200035b846200020f565b810160208510156200036b578190505b620003836200037a856200020f565b83018262000314565b50505b505050565b600082821c905092915050565b6000620003ab600019846008026200038b565b1980831691505092915050565b6000620003c6838362000398565b9150826002028217905092915050565b620003e1826200015c565b67ffffffffffffffff811115620003fd57620003fc62000167565b5b620004098254620001c5565b620004168282856200033b565b600060209050601f8311600181146200044e576000841562000439578287015190505b620004458582620003b8565b865550620004b5565b601f1984166200045e86620001fa565b60005b82811015620004885784890151825560018201915060208501945060208101905062000461565b86831015620004a85784890151620004a4601f89168262000398565b8355505b6001600288020188555050505b505050505050565b61202980620004cd6000396000f3fe6080604052600436106101145760003560e01c806370a08231116100a0578063a0712d6811610064578063a0712d681461038e578063a22cb465146103aa578063b88d4fde146103d3578063c87b56dd146103ef578063e985e9c51461042c57610114565b806370a08231146102a55780637284e416146102e25780638da5cb5b1461030d578063953637311461033857806395d89b411461036357610114565b806318160ddd116100e757806318160ddd146101da57806323b872dd1461020557806342842e0e146102215780635bcabf041461023d5780636352211e1461026857610114565b806301ffc9a71461011957806306fdde0314610156578063081812fc14610181578063095ea7b3146101be575b600080fd5b34801561012557600080fd5b50610140600480360381019061013b91906117de565b610469565b60405161014d9190611826565b60405180910390f35b34801561016257600080fd5b5061016b6104fb565b60405161017891906118d1565b60405180910390f35b34801561018d57600080fd5b506101a860048036038101906101a39190611929565b61058d565b6040516101b59190611997565b60405180910390f35b6101d860048036038101906101d391906119de565b61060c565b005b3480156101e657600080fd5b506101ef610750565b6040516101fc9190611a2d565b60405180910390f35b61021f600480360381019061021a9190611a48565b610767565b005b61023b60048036038101906102369190611a48565b610a89565b005b34801561024957600080fd5b50610252610aa9565b60405161025f91906118d1565b60405180910390f35b34801561027457600080fd5b5061028f600480360381019061028a9190611929565b610b37565b60405161029c9190611997565b60405180910390f35b3480156102b157600080fd5b506102cc60048036038101906102c79190611a9b565b610b49565b6040516102d99190611a2d565b60405180910390f35b3480156102ee57600080fd5b506102f7610c01565b60405161030491906118d1565b60405180910390f35b34801561031957600080fd5b50610322610c8f565b60405161032f9190611997565b60405180910390f35b34801561034457600080fd5b5061034d610cb5565b60405161035a91906118d1565b60405180910390f35b34801561036f57600080fd5b50610378610d47565b60405161038591906118d1565b60405180910390f35b6103a860048036038101906103a39190611929565b610dd9565b005b3480156103b657600080fd5b506103d160048036038101906103cc9190611af4565b610eba565b005b6103ed60048036038101906103e89190611c69565b610fc5565b005b3480156103fb57600080fd5b5061041660048036038101906104119190611929565b611038565b60405161042391906118d1565b60405180910390f35b34801561043857600080fd5b50610453600480360381019061044e9190611cec565b6110d6565b6040516104609190611826565b60405180910390f35b60006301ffc9a760e01b827bffffffffffffffffffffffffffffffffffffffffffffffffffffffff191614806104c457506380ac58cd60e01b827bffffffffffffffffffffffffffffffffffffffffffffffffffffffff1916145b806104f45750635b5e139f60e01b827bffffffffffffffffffffffffffffffffffffffffffffffffffffffff1916145b9050919050565b60606002805461050a90611d5b565b80601f016020809104026020016040519081016040528092919081815260200182805461053690611d5b565b80156105835780601f1061055857610100808354040283529160200191610583565b820191906000526020600020905b81548152906001019060200180831161056657829003601f168201915b5050505050905090565b60006105988261116a565b6105ce576040517fcf4700e400000000000000000000000000000000000000000000000000000000815260040160405180910390fd5b6006600083815260200190815260200160002060000160009054906101000a900473ffffffffffffffffffffffffffffffffffffffff169050919050565b600061061782610b37565b90508073ffffffffffffffffffffffffffffffffffffffff166106386111c9565b73ffffffffffffffffffffffffffffffffffffffff161461069b576106648161065f6111c9565b6110d6565b61069a576040517fcfb3b94200000000000000000000000000000000000000000000000000000000815260040160405180910390fd5b5b826006600084815260200190815260200160002060000160006101000a81548173ffffffffffffffffffffffffffffffffffffffff021916908373ffffffffffffffffffffffffffffffffffffffff160217905550818373ffffffffffffffffffffffffffffffffffffffff168273ffffffffffffffffffffffffffffffffffffffff167f8c5be1e5ebec7d5bd14f71427d1e84f3dd0314c0f7b2291e5b200ac8c7c3b92560405160405180910390a4505050565b600061075a6111d1565b6001546000540303905090565b6000610772826111d6565b90508373ffffffffffffffffffffffffffffffffffffffff168173ffffffffffffffffffffffffffffffffffffffff16146107d9576040517fa114810000000000000000000000000000000000000000000000000000000000815260040160405180910390fd5b6000806107e5846112a2565b915091506107fb81876107f66111c9565b6112c9565b610847576108108661080b6111c9565b6110d6565b610846576040517f59c896be00000000000000000000000000000000000000000000000000000000815260040160405180910390fd5b5b600073ffffffffffffffffffffffffffffffffffffffff168573ffffffffffffffffffffffffffffffffffffffff16036108ad576040517fea553b3400000000000000000000000000000000000000000000000000000000815260040160405180910390fd5b6108ba868686600161130d565b80156108c557600082555b600560008773ffffffffffffffffffffffffffffffffffffffff1673ffffffffffffffffffffffffffffffffffffffff168152602001908152602001600020600081546001900391905081905550600560008673ffffffffffffffffffffffffffffffffffffffff1673ffffffffffffffffffffffffffffffffffffffff16815260200190815260200160002060008154600101919050819055506109938561096f888887611313565b7c02000000000000000000000000000000000000000000000000000000001761133b565b600460008681526020019081526020016000208190555060007c0200000000000000000000000000000000000000000000000000000000841603610a195760006001850190506000600460008381526020019081526020016000205403610a17576000548114610a16578360046000838152602001908152602001600020819055505b5b505b838573ffffffffffffffffffffffffffffffffffffffff168773ffffffffffffffffffffffffffffffffffffffff167fddf252ad1be2c89b69c2b068fc378daa952ba7f163c4a11628f55a4df523b3ef60405160405180910390a4610a818686866001611366565b505050505050565b610aa483838360405180602001604052806000815250610fc5565b505050565b60098054610ab690611d5b565b80601f0160208091040260200160405190810160405280929190818152602001828054610ae290611d5b565b8015610b2f5780601f10610b0457610100808354040283529160200191610b2f565b820191906000526020600020905b815481529060010190602001808311610b1257829003601f168201915b505050505081565b6000610b42826111d6565b9050919050565b60008073ffffffffffffffffffffffffffffffffffffffff168273ffffffffffffffffffffffffffffffffffffffff1603610bb0576040517f8f4eb60400000000000000000000000000000000000000000000000000000000815260040160405180910390fd5b67ffffffffffffffff600560008473ffffffffffffffffffffffffffffffffffffffff1673ffffffffffffffffffffffffffffffffffffffff16815260200190815260200160002054169050919050565b600a8054610c0e90611d5b565b80601f0160208091040260200160405190810160405280929190818152602001828054610c3a90611d5b565b8015610c875780601f10610c5c57610100808354040283529160200191610c87565b820191906000526020600020905b815481529060010190602001808311610c6a57829003601f168201915b505050505081565b600860009054906101000a900473ffffffffffffffffffffffffffffffffffffffff1681565b6060600a8054610cc490611d5b565b80601f0160208091040260200160405190810160405280929190818152602001828054610cf090611d5b565b8015610d3d5780601f10610d1257610100808354040283529160200191610d3d565b820191906000526020600020905b815481529060010190602001808311610d2057829003601f168201915b5050505050905090565b606060038054610d5690611d5b565b80601f0160208091040260200160405190810160405280929190818152602001828054610d8290611d5b565b8015610dcf5780601f10610da457610100808354040283529160200191610dcf565b820191906000526020600020905b815481529060010190602001808311610db257829003601f168201915b5050505050905090565b600860009054906101000a900473ffffffffffffffffffffffffffffffffffffffff1673ffffffffffffffffffffffffffffffffffffffff163373ffffffffffffffffffffffffffffffffffffffff1614610e69576040517f08c379a0000000000000000000000000000000000000000000000000000000008152600401610e6090611dfe565b60405180910390fd5b6005811115610ead576040517f08c379a0000000000000000000000000000000000000000000000000000000008152600401610ea490611e90565b60405180910390fd5b610eb7338261136c565b50565b8060076000610ec76111c9565b73ffffffffffffffffffffffffffffffffffffffff1673ffffffffffffffffffffffffffffffffffffffff16815260200190815260200160002060008473ffffffffffffffffffffffffffffffffffffffff1673ffffffffffffffffffffffffffffffffffffffff16815260200190815260200160002060006101000a81548160ff0219169083151502179055508173ffffffffffffffffffffffffffffffffffffffff16610f746111c9565b73ffffffffffffffffffffffffffffffffffffffff167f17307eab39ab6107e8899845ad3d59bd9653f200f220920489ca2b5937696c3183604051610fb99190611826565b60405180910390a35050565b610fd0848484610767565b60008373ffffffffffffffffffffffffffffffffffffffff163b1461103257610ffb84848484611527565b611031576040517fd1a57ed600000000000000000000000000000000000000000000000000000000815260040160405180910390fd5b5b50505050565b60606110438261116a565b611079576040517fa14c4b5000000000000000000000000000000000000000000000000000000000815260040160405180910390fd5b6000611083611677565b905060008151036110a357604051806020016040528060008152506110ce565b806110ad84611709565b6040516020016110be929190611eec565b6040516020818303038152906040525b915050919050565b6000600760008473ffffffffffffffffffffffffffffffffffffffff1673ffffffffffffffffffffffffffffffffffffffff16815260200190815260200160002060008373ffffffffffffffffffffffffffffffffffffffff1673ffffffffffffffffffffffffffffffffffffffff16815260200190815260200160002060009054906101000a900460ff16905092915050565b6000816111756111d1565b11158015611184575060005482105b80156111c2575060007c0100000000000000000000000000000000000000000000000000000000600460008581526020019081526020016000205416145b9050919050565b600033905090565b600090565b600080829050806111e56111d1565b1161126b5760005481101561126a5760006004600083815260200190815260200160002054905060007c0100000000000000000000000000000000000000000000000000000000821603611268575b6000810361125e576004600083600190039350838152602001908152602001600020549050611234565b809250505061129d565b505b5b6040517fdf2d9b4200000000000000000000000000000000000000000000000000000000815260040160405180910390fd5b919050565b60008060006006600085815260200190815260200160002090508092508254915050915091565b600073ffffffffffffffffffffffffffffffffffffffff8316925073ffffffffffffffffffffffffffffffffffffffff821691508382148383141790509392505050565b50505050565b60008060e883901c905060e861132a868684611759565b62ffffff16901b9150509392505050565b600073ffffffffffffffffffffffffffffffffffffffff83169250814260a01b178317905092915050565b50505050565b600080549050600082036113ac576040517fb562e8dd00000000000000000000000000000000000000000000000000000000815260040160405180910390fd5b6113b9600084838561130d565b600160406001901b178202600560008573ffffffffffffffffffffffffffffffffffffffff1673ffffffffffffffffffffffffffffffffffffffff16815260200190815260200160002060008282540192505081905550611430836114216000866000611313565b61142a85611762565b1761133b565b6004600083815260200190815260200160002081905550600080838301905073ffffffffffffffffffffffffffffffffffffffff85169150828260007fddf252ad1be2c89b69c2b068fc378daa952ba7f163c4a11628f55a4df523b3ef600080a4600183015b8181146114d157808360007fddf252ad1be2c89b69c2b068fc378daa952ba7f163c4a11628f55a4df523b3ef600080a4600181019050611496565b506000820361150c576040517f2e07630000000000000000000000000000000000000000000000000000000000815260040160405180910390fd5b8060008190555050506115226000848385611366565b505050565b60008373ffffffffffffffffffffffffffffffffffffffff1663150b7a0261154d6111c9565b8786866040518563ffffffff1660e01b815260040161156f9493929190611f65565b6020604051808303816000875af19250505080156115ab57506040513d601f19601f820116820180604052508101906115a89190611fc6565b60015b611624573d80600081146115db576040519150601f19603f3d011682016040523d82523d6000602084013e6115e0565b606091505b50600081510361161c576040517fd1a57ed600000000000000000000000000000000000000000000000000000000815260040160405180910390fd5b805181602001fd5b63150b7a0260e01b7bffffffffffffffffffffffffffffffffffffffffffffffffffffffff1916817bffffffffffffffffffffffffffffffffffffffffffffffffffffffff191614915050949350505050565b60606009805461168690611d5b565b80601f01602080910402602001604051908101604052809291908181526020018280546116b290611d5b565b80156116ff5780601f106116d4576101008083540402835291602001916116ff565b820191906000526020600020905b8154815290600101906020018083116116e257829003601f168201915b5050505050905090565b606060a060405101806040526020810391506000825281835b60011561174457600184039350600a81066030018453600a8104905080611722575b50828103602084039350808452505050919050565b60009392505050565b60006001821460e11b9050919050565b6000604051905090565b600080fd5b600080fd5b60007fffffffff0000000000000000000000000000000000000000000000000000000082169050919050565b6117bb81611786565b81146117c657600080fd5b50565b6000813590506117d8816117b2565b92915050565b6000602082840312156117f4576117f361177c565b5b6000611802848285016117c9565b91505092915050565b60008115159050919050565b6118208161180b565b82525050565b600060208201905061183b6000830184611817565b92915050565b600081519050919050565b600082825260208201905092915050565b60005b8381101561187b578082015181840152602081019050611860565b60008484015250505050565b6000601f19601f8301169050919050565b60006118a382611841565b6118ad818561184c565b93506118bd81856020860161185d565b6118c681611887565b840191505092915050565b600060208201905081810360008301526118eb8184611898565b905092915050565b6000819050919050565b611906816118f3565b811461191157600080fd5b50565b600081359050611923816118fd565b92915050565b60006020828403121561193f5761193e61177c565b5b600061194d84828501611914565b91505092915050565b600073ffffffffffffffffffffffffffffffffffffffff82169050919050565b600061198182611956565b9050919050565b61199181611976565b82525050565b60006020820190506119ac6000830184611988565b92915050565b6119bb81611976565b81146119c657600080fd5b50565b6000813590506119d8816119b2565b92915050565b600080604083850312156119f5576119f461177c565b5b6000611a03858286016119c9565b9250506020611a1485828601611914565b9150509250929050565b611a27816118f3565b82525050565b6000602082019050611a426000830184611a1e565b92915050565b600080600060608486031215611a6157611a6061177c565b5b6000611a6f868287016119c9565b9350506020611a80868287016119c9565b9250506040611a9186828701611914565b9150509250925092565b600060208284031215611ab157611ab061177c565b5b6000611abf848285016119c9565b91505092915050565b611ad18161180b565b8114611adc57600080fd5b50565b600081359050611aee81611ac8565b92915050565b60008060408385031215611b0b57611b0a61177c565b5b6000611b19858286016119c9565b9250506020611b2a85828601611adf565b9150509250929050565b600080fd5b600080fd5b7f4e487b7100000000000000000000000000000000000000000000000000000000600052604160045260246000fd5b611b7682611887565b810181811067ffffffffffffffff82111715611b9557611b94611b3e565b5b80604052505050565b6000611ba8611772565b9050611bb48282611b6d565b919050565b600067ffffffffffffffff821115611bd457611bd3611b3e565b5b611bdd82611887565b9050602081019050919050565b82818337600083830152505050565b6000611c0c611c0784611bb9565b611b9e565b905082815260208101848484011115611c2857611c27611b39565b5b611c33848285611bea565b509392505050565b600082601f830112611c5057611c4f611b34565b5b8135611c60848260208601611bf9565b91505092915050565b60008060008060808587031215611c8357611c8261177c565b5b6000611c91878288016119c9565b9450506020611ca2878288016119c9565b9350506040611cb387828801611914565b925050606085013567ffffffffffffffff811115611cd457611cd3611781565b5b611ce087828801611c3b565b91505092959194509250565b60008060408385031215611d0357611d0261177c565b5b6000611d11858286016119c9565b9250506020611d22858286016119c9565b9150509250929050565b7f4e487b7100000000000000000000000000000000000000000000000000000000600052602260045260246000fd5b60006002820490506001821680611d7357607f821691505b602082108103611d8657611d85611d2c565b5b50919050565b7f4f6e6c79206f776e65722063616e20706572666f726d2074686973206163746960008201527f6f6e210000000000000000000000000000000000000000000000000000000000602082015250565b6000611de860238361184c565b9150611df382611d8c565b604082019050919050565b60006020820190508181036000830152611e1781611ddb565b9050919050565b7f4f6e6c792035204e4654732063616e206265206d696e7465642061742061207460008201527f696d650000000000000000000000000000000000000000000000000000000000602082015250565b6000611e7a60238361184c565b9150611e8582611e1e565b604082019050919050565b60006020820190508181036000830152611ea981611e6d565b9050919050565b600081905092915050565b6000611ec682611841565b611ed08185611eb0565b9350611ee081856020860161185d565b80840191505092915050565b6000611ef88285611ebb565b9150611f048284611ebb565b91508190509392505050565b600081519050919050565b600082825260208201905092915050565b6000611f3782611f10565b611f418185611f1b565b9350611f5181856020860161185d565b611f5a81611887565b840191505092915050565b6000608082019050611f7a6000830187611988565b611f876020830186611988565b611f946040830185611a1e565b8181036060830152611fa68184611f2c565b905095945050505050565b600081519050611fc0816117b2565b92915050565b600060208284031215611fdc57611fdb61177c565b5b6000611fea84828501611fb1565b9150509291505056fea2646970667358221220b9e5820d18eb37452d34380d58197d3f01210031ffae0d6127cfc37accf4b5b964736f6c63430008120033416e20696d7072657373696f6e697374206f696c207061696e74696e67206f662073756e666c6f77657220696e206120707572706c65207661736568747470733a2f2f676174657761792e70696e6174612e636c6f75642f697066732f516d583745344259646e6a77654364524152735763637a37535255317134737a6939393472346839417152724b6b2f3f5f676c3d312a6e3532386f712a5f67612a4d6a41784e54637a4d7a49304d6934784e6a6b794e7a6b774e6a51302a5f67615f35524d505847313454452a4d5459354d6a6b354e7a41324e6934324c6a45754d5459354d6a6b354e7a45304e7934324d4334774c6a412e",
  "linkReferences": {},
  "deployedLinkReferences": {}
}